:100000000C945C000C9479000C9479000C947900A9
:100010000C9479000C9479000C9479000C943001C4
:100020000C9479000C9479000C9479000C9479006C
:100030000C9479000C9479000C9479000C9479005C
:100040000C94E6000C9479000C9479000C947900DF
:100050000C9479000C9479000C9479000C9479003C
:100060000C9479000C947900000000080002010053
:100070000003040700000000000000000000000072
:10008000250028002B0000000000240027002A0083
:10009000040404040404040402020202020203032E
:1000A0000303030301020408102040800102040836
:1000B000102001020408102011241FBECFEFD8E049
:1000C000DEBFCDBF11E0A0E0B1E0E0EFF5E002C09F
:1000D00005900D92AE31B107D9F721E0AEE1B1E064
:1000E00001C01D92AC33B207E1F70E949E010C944F
:1000F000F6020C94000090E0FC01EC55FF4F2491B7
:1001000080579F4FFC018491882399F090E0880FDD
:10011000991FFC01EA57FF4FA591B491FC01E458E7
:10012000FF4F859194918FB7F894EC91E22BEC936B
:100130008FBF089590E0FC01E859FF4F2491FC0126
:10014000EC55FF4F3491FC01E057FF4FE491EE2353
:10015000C9F0222339F0233001F1A8F4213019F13C
:10016000223029F1F0E0EE0FFF1FE458FF4FA59178
:10017000B4918FB7F894EC91611126C030953E236D
:100180003C938FBF08952730A9F02830C9F0243060
:1001900049F7809180008F7D03C0809180008F7728
:1001A00080938000DFCF84B58F7784BDDBCF84B5AB
:1001B0008F7DFBCF8091B0008F778093B000D2CF3E
:1001C0008091B0008F7DF9CF3E2BDACF1F920F9236
:1001D0000FB60F9211242F933F938F939F93AF935A
:1001E000BF938091380190913901A0913A01B0916B
:1001F0003B013091370123E0230F2D3758F501964D
:10020000A11DB11D209337018093380190933901CE
:10021000A0933A01B0933B01809133019091340156
:10022000A0913501B09136010196A11DB11D8093B9
:10023000330190933401A0933501B0933601BF91FF
:10024000AF919F918F913F912F910F900FBE0F9083
:100250001F90189526E8230F0296A11DB11DD2CF3D
:100260001F920F920FB60F921124CF92DF92EF924E
:10027000FF920F931F932F933F934F935F936F932F
:100280007F938F939F93AF93BF93CF93DF93EF931E
:10029000FF93C0911E01D0E0FE01E15EFE4FE080C1
:1002A00061E082E00E949A0061E083E00E949A008F
:1002B00061E084E00E949A0061E085E00E949A007B
:1002C00081E0C82E81E0D82E10E000E0F12CB701CB
:1002D000002E02C0759567950A94E2F76170F601E9
:1002E00081916F010E949A000F5F1F4F0830110526
:1002F00071F7FE01E75FFE4F60E080810E949A0087
:100300002196C370DD27C0931E01FF91EF91DF910D
:10031000CF91BF91AF919F918F917F916F915F919D
:100320004F913F912F911F910F91FF90EF90DF9090
:10033000CF900F900FBE0F901F901895789484B5B2
:10034000826084BD84B5816084BD85B5826085BDD1
:1003500085B5816085BD80916E00816080936E005F
:100360001092810080918100826080938100809151
:100370008100816080938100809180008160809302
:1003800080008091B10084608093B1008091B000C2
:1003900081608093B00080917A00846080937A00BD
:1003A00080917A00826080937A0080917A008160E7
:1003B00080937A0080917A00806880937A0010920E
:1003C000C100C9E0D1E0ADE0EA2EA1E0FA2E19911A
:1003D000812F0E947B0060E0812F0E949A00EC1622
:1003E000FD06A9F7C1E0D1E01991812F0E947B00A1
:1003F00060E0812F0E949A0081E0C930D807A1F700
:10040000F89482E08093B0008093700086E080933F
:10041000B1008AEF8093B30078947AE0C72ED12C94
:10042000E12CF12CE4E64E2E512C612C712CF0E0E5
:100430002F2EF0E03F2E11E080912B01811115C08D
:100440002FB7F8948091380190913901A0913A0129
:10045000B0913B012FBF8093270190932801A09377
:100460002901B0932A0110932B018FB7F894409182
:1004700038015091390160913A0170913B018FBF71
:100480008091270190912801A0912901B0912A0122
:10049000481B590B6A0B7B0B4436510561057105EE
:1004A00008F47BC08C599F4FAF4FBF4F80932701FB
:1004B00090932801A0932901B0932A016091230110
:1004C0007091240180912501909126016F5F7F4FEB
:1004D0008F4F9F4F20E137E240E050E00E94D4026E
:1004E0004B015C018092230190922401A09225018E
:1004F000B0922601A70196010E94D40260932201C6
:10050000CA01B901A70196010E94D402609321019A
:10051000C501B401A30192010E94D402CA01B9012C
:10052000A70196010E94D40260932001C501B40185
:1005300028EE33E040E050E00E94D40220931F01F7
:100540008091000190E0AFE1B1E030E020E0ED917A
:10055000ED012197AC01022E02C0559547950A94F2
:10056000E2F75695542F442757954795F0E0E35FFF
:10057000FE4F5081450F48832F5F3F4F2430310598
:1005800031F79C01220F331F53E0959587955A95BB
:10059000E1F7282B2F70209300012114310409F476
:1005A0004BCF0E94000048CFA1E21A2EAA1BBB1B12
:1005B000FD010DC0AA1FBB1FEE1FFF1FA217B3072F
:1005C000E407F50720F0A21BB30BE40BF50B661F45
:1005D000771F881F991F1A9469F760957095809509
:1005E00090959B01AC01BD01CF010895F894FFCF18
:1005F00001060708090A0B0C0D020304053F065B00
:0E0600004F666D7D077F6F777C395E797100E4
:00000001FF
