:100000000C94A3000C94CB000C94CB000C94CB006C
:100010000C94CB000C94CB000C94CB000C949E045D
:100020000C94CB000C94CB000C94CB000C94CB0024
:100030000C94CB000C94CB000C94CB000C94CB0014
:100040000C94FC030C94CB000C946C040C944604AC
:100050000C94CB000C94CB000C94CB000C94CB00F4
:100060000C94CB000C94CB0007634236B79BD8A707
:100070001A39685618AEBAAB558C1D3CB7CC5763CD
:10008000BD6DEDFD753EF6177231BF000000803F7B
:1000900008000000BE922449123EABAAAA2ABECD97
:1000A000CCCC4C3E00000080BEABAAAAAA3E000009
:1000B0000000BF000000803F000000000008417801
:1000C000D3BB4387D1133D190E3CC3BD4282AD2B38
:1000D0003E68EC8276BED98FE1A93E4C80EFFFBE30
:1000E00001C4FF7F3F00000000000000000024006A
:1000F00027002A0000000000250028002B00000037
:10010000000023002600290004040404040404045D
:1001100002020202020203030303030301020408B2
:100120001020408001020408102001020408102061
:1001300000000008000201000003040700000000A6
:1001400000000000020811241FBECFEFD8E0DEBF80
:10015000CDBF11E0A0E0B1E0E8E3F8E102C0059016
:100160000D92A834B107D9F722E0A8E4B1E001C0AC
:100170001D92A233B207E1F710E0C3EAD0E004C059
:100180002197FE010E945108C23AD107C9F70E9487
:1001900008050C941A0C0C940000833081F028F4AC
:1001A000813099F08230A9F008958730A9F0883025
:1001B000C9F08430B1F4809180008F7D03C08091BC
:1001C00080008F7780938000089584B58F7784BDF9
:1001D000089584B58F7DFBCF8091B0008F77809399
:1001E000B00008958091B0008F7DF9CFCF93DF9359
:1001F000282F30E0F901E05DFE4F8491F901E45EC3
:10020000FE4FD491F901E85FFE4FC491CC23A1F0D9
:1002100081110E94CD00EC2FF0E0EE0FFF1FE250A5
:10022000FF4FA591B491EC91ED2381E090E009F4AA
:1002300080E0DF91CF91089580E090E0FACF1F93A6
:10024000CF93DF93282F30E0F901E05DFE4F8491DA
:10025000F901E45EFE4FD491F901E85FFE4FC491CD
:10026000CC23A9F0162F81110E94CD00EC2FF0E0D5
:10027000EE0FFF1FEC50FF4FA591B4918FB7F8948C
:10028000EC91111108C0D095DE23DC938FBFDF9174
:10029000CF911F910895DE2BF8CFCF93DF9390E09D
:1002A000FC01E45EFE4F2491885F9E4FFC01849127
:1002B0008823D1F090E0880F991FFC01E651FF4F91
:1002C000A591B491FC01EC50FF4FC591D4916230DF
:1002D00071F49FB7F8943C91822F809583238C937F
:1002E000E8812E2B28839FBFDF91CF9108958FB790
:1002F000F894EC912E2B2C938FBFF6CF2FB7F89458
:10030000609191017091920180919301909194017B
:100310002FBF0895AF92BF92CF92DF92EF92FF92DC
:100320000F931F93CF93DF936C017B018B01040F1D
:10033000151FEB015E01AE18BF08C017D10759F0B9
:100340006991D601ED91FC910190F081E02DC601FB
:100350000995892B79F7C501DF91CF911F910F91F5
:10036000FF90EF90DF90CF90BF90AF900895FC0189
:10037000538D448D252F30E0842F90E0821B930B0A
:10038000541710F0CF96089501970895FC01918DB0
:10039000828D981761F0A28DAE0FBF2FB11D5D96B3
:1003A0008C91928D9F5F9F73928F90E008958FEF55
:1003B0009FEF0895FC01918D828D981731F0828D09
:1003C000E80FF11D858D90E008958FEF9FEF089560
:1003D000FC01918D228D892F90E0805C9F4F821BC4
:1003E00091098F739927089585E991E00E94E801AA
:1003F00021E0892B09F420E0822F089580E090E02D
:10040000892B29F00E94F40181110C9400000895B9
:10041000FC01A48DA80FB92FB11DA35ABF4F2C9179
:10042000848D90E001968F739927848FA689B78970
:100430002C93A089B1898C91837080648C93938D67
:10044000848D981306C00288F389E02D80818F7D0A
:1004500080830895EF92FF920F931F93CF93DF93C2
:10046000EC0181E0888F9B8D8C8D98131AC0E889F0
:10047000F989808185FF15C09FB7F894EE89FF89BF
:100480006083E889F98980818370806480839FBF5D
:1004900081E090E0DF91CF911F910F91FF90EF905D
:1004A0000895F62E0B8D10E00F5F1F4F0F7311276D
:1004B000E02E8C8D8E110CC00FB607FCFACFE889A8
:1004C000F989808185FFF5CFCE010E940802F1CF26
:1004D000EB8DEC0FFD2FF11DE35AFF4FF0829FB71C
:1004E000F8940B8FEA89FB8980818062CFCFCF930C
:1004F000DF93EC01888D8823B9F0AA89BB89E8894C
:10050000F9898C9185FD03C0808186FD0DC00FB6F1
:1005100007FCF7CF8C9185FFF2CF808185FFEDCF6F
:10052000CE010E940802E9CFDF91CF9108958F920A
:100530009F92AF92BF92CF92DF92EF92FF92CF93B2
:10054000DF936B017C0180E1C81687E2D806E104E5
:10055000F10430F04FE0C42E47E2D42EE12CF12C10
:100560003AE0832E912CA12CB12CC701B601A50134
:1005700094010E942F0860935001CA01B901A5019E
:1005800094010E942F0860934F01C701B60124E631
:1005900030E040E050E00E942F08CA01B901A501F7
:1005A00094010E942F0860934E01C701B60128EE06
:1005B00033E040E050E00E942F0820934D0160910D
:1005C000000170E0CDE4D1E0A9E4B1E090E080E08A
:1005D000E991AB01082E02C0559547950A94E2F7C0
:1005E0005695542F442757954795F0E0ED5DFE4F03
:1005F0002081242B2D9301968430910549F7DF91BA
:10060000CF91FF90EF90DF90CF90BF90AF909F90F1
:100610008F900895FC0101900020E9F73197AF0118
:10062000481B590BBC0185E991E00C948A018F921B
:100630009F92AF92BF92CF92DF92EF92FF92CF93B1
:10064000DF934B015C0120E030E0A9010E94230A06
:10065000C3E0D0E087FF19C08EE080934D01809306
:100660004E0180934F0180935001ADE4B1E0C9E4A5
:10067000D1E081E591E0ED91F0E0ED5DFE4F20816C
:1006800029938A179B07B9F74AC0BE010D2E000CAB
:10069000880B990B0E9473099B01AC0160E070E02C
:1006A00080E291E40E94950A9B01AC01C501B4016E
:1006B0000E94280A6B017C0120E030E0A9010E9421
:1006C000230A20E030E040E05FE387FD33C0C7014C
:1006D000B6010E9458080E943B096B017C0180E131
:1006E000C81687E2D806E104F10448F1219768F6BC
:1006F0008EE080934D0180934E0180934F01809353
:100700005001ADE4B1E0C9E4D1E0ED91F0E0ED5D80
:10071000FE4F8081899381E0A135B807B1F7DF9161
:10072000CF91FF90EF90DF90CF90BF90AF909F90D0
:100730008F900895C701B6010E945708CCCF5AE0A8
:10074000852E912CA12CB12CC701B601A5019401D5
:100750000E942F0860935001CA01B901A5019401BC
:100760000E942F0860934F01C701B60124E630E0D4
:1007700040E050E00E942F08CA01B901A501940190
:100780000E942F0860934E01C701B60128EE33E0A6
:1007900040E050E00E942F0820934D0180E0209718
:1007A00049F023E030E02C1B3D0B81E001C0880FB5
:1007B0002A95EAF780930001CDE4D1E0A9E4B1E005
:1007C00030E020E090E0E991BC01022E02C0759576
:1007D00067950A94E2F77695762F66277795679561
:1007E000F0E0ED5DFE4F4081462B4D932F5F3F4F74
:1007F0002430310541F793CF1F920F920FB60F921D
:1008000011242F933F938F939F93AF93BF93809126
:10081000910190919201A0919301B0919401309136
:10082000900123E0230F2D3758F50196A11DB11D2E
:10083000209390018093910190939201A093930152
:10084000B093940180918C0190918D01A0918E01C3
:10085000B0918F010196A11DB11D80938C019093E1
:100860008D01A0938E01B0938F01BF91AF919F91A5
:100870008F913F912F910F900FBE0F901F90189561
:1008800026E8230F0296A11DB11DD2CF1F920F9211
:100890000FB60F9211242F933F934F935F936F9353
:1008A0007F938F939F93AF93BF93EF93FF9385E9CC
:1008B00091E00E940802FF91EF91BF91AF919F914B
:1008C0008F917F916F915F914F913F912F910F90F9
:1008D0000FBE0F901F9018951F920F920FB60F9298
:1008E00011242F938F939F93EF93FF93E091A50192
:1008F000F091A6018081E091AB01F091AC0182FD05
:100900001BC090818091AE018F5F8F732091AF01EA
:10091000821741F0E091AE01F0E0EB56FE4F958F6B
:100920008093AE01FF91EF919F918F912F910F9046
:100930000FBE0F901F9018958081F4CF1F920F92D9
:100940000FB60F9211242F933F934F935F936F93A2
:100950007F938F939F93AF93EF93FF93A091480161
:100960006A2F70E0FB01E75BFE4F2081439A8BB159
:100970008C638BB9822F90E03BB1AC01E6E0440F71
:10098000551FEA95E1F74074FC01F595E795F6955A
:10099000FE2FEE27F795E7954E2B3F73432B4BB970
:1009A00035B1959587959595879583703C7F832B79
:1009B00085B985B122952F70220F220F837C282BB9
:1009C00025B9A43060F42BB16E5F7F4F81E090E0D9
:1009D00001C0880F6A95EAF7809582238BB9439806
:1009E0008091480190E00196837099278093480197
:1009F000FF91EF91AF919F918F917F916F915F9157
:100A00004F913F912F910F900FBE0F901F9018950F
:100A1000CF93DF93CDB7DEB7A5970FB6F894DEBFBF
:100A20000FBECDBF789484B5826084BD84B58160EB
:100A300084BD85B5826085BD85B5816085BD8091A9
:100A40006E00816080936E00109281008091810021
:100A50008260809381008091810081608093810019
:100A6000809180008160809380008091B1008460DB
:100A70008093B1008091B00081608093B00080913C
:100A80007A00846080937A0080917A0082608093FB
:100A90007A0080917A00816080937A0080917A0058
:100AA000806880937A001092C1000BE111E0F80198
:100AB000F1908F0161E08F2D0E944D0160E08F2D3C
:100AC0000E941F01F1E00F311F0789F703E111E0D8
:100AD0008BE1C82E81E0D82EF801F1908F0161E002
:100AE0008F2D0E944D0160E08F2D0E941F01C016C6
:100AF000D10691F73B9A439861E083E10E944D0152
:100B000060E083E10E941F01E091A501F091A60140
:100B100082E08083E091A101F091A2011082E09136
:100B2000A301F091A4019FEC90831092AD01E0919C
:100B3000A901F091AA0126E02083E091A701F0919C
:100B4000A801908190619083E091A701F091A801A4
:100B5000908198609083E091A701F091A801908125
:100B600090689083E091A701F091A80190819F7D0A
:100B70009083F8948093B000809370002093B1002C
:100B80008AEF8093B300789462E082E10E944D0185
:100B900062E08EE00E944D0162E08FE00E944D0114
:100BA0008EE00E94F6007C018FE00E94F600EE0CC1
:100BB000FF1CE82AE092670111E080918401811115
:100BC0000CC00E947E01609380017093810180932C
:100BD00082019093830110938401809178018111A7
:100BE0000CC00E947E016093740170937501809324
:100BF0007601909377011093780180916C018111B7
:100C00000CC00E947E01609368017093690180931B
:100C10006A0190936B0110936C010E947E01C09059
:100C20008001D0908101E0908201F0908301AB01BE
:100C3000BC014C195D096E097F09443651056105F7
:100C4000710508F45FC0D701C6018C599F4FAF4FA3
:100C5000BF4F8093800190938101A0938201B09354
:100C60008301EFE1F1E0A1E5CA2EA1E0DA2ED60181
:100C700081918E3008F08E508770806480937C0064
:100C800080917A00806480937A0080917A0086FD5A
:100C9000FCCF80917800909179008D939D9323E211
:100CA00031E02E173F0721F7F601219131916F01B5
:100CB00050E040E019A27E01F1E2EF0EF11CCA0102
:100CC000B9012AE030E040E050E00E942F08605D6A
:100CD000F70162937F01211531054105510579F72F
:100CE000309719F0CF010E940A0383E491E00E943B
:100CF0000A0329E531E02C153D05B1F685E491E0C4
:100D00000E940A038EE00E94F600F82E8FE00E94F7
:100D1000F600FF0C8F2940916301509164016091AE
:100D2000650170916601E091670134E0E39FF00195
:100D30001124E82BEF70F0E0ED5CFE4FC0800C2C2E
:100D4000000CDD08EE08FF084C0D5D1D6E1D7F1DBB
:100D50004093630150936401609365017093660151
:100D6000809367010E947E01C0907401D09075014C
:100D7000E0907601F0907701AB01BC014C195D0960
:100D80006E097F09403D57406105710508F454C064
:100D9000D701C6018053984FAF4FBF4F8093740166
:100DA00090937501A0937601B093770180915901DA
:100DB00090E00196837099278093590121E030E0FB
:100DC00002C0220F331F8A95E2F7F89420930001A6
:100DD0004DE451E0A9E4B1E090E080E0FA01019136
:100DE000AF01B901082E02C0759567950A94E2F724
:100DF0007695762F662777956795E02FF0E0ED5D85
:100E0000FE4F7081672B6D9301968430910531F709
:100E1000E0915901F0E0EE0FFF1FEF5AFE4F6081A5
:100E200071816031F7E27F0710F06FE077E290E0C8
:100E300080E00E94970278940E947E01C090680131
:100E4000D0906901E0906A01F0906B01AB01BC01A8
:100E50004C195D096E097F09483C51056105710512
:100E600008F486C0D701C60188539F4FAF4FBF4FCC
:100E70008093680190936901A0936A01B0936B011C
:100E800082E10E94F6001C0181E02114310409F086
:100E900080E0809362014090630150906401609013
:100EA0006501709066010E947E016B017C0180915A
:100EB0005E0190915F01A0916001B09161014601D6
:100EC0005701881A990AAA0ABB0A09F473C08091CB
:100ED0005A0190915B01A0915C01B0915D01A30169
:100EE0009201281B390B4A0B5B0BCA01B9010E9406
:100EF00073096AA37BA38CA39DA3C501B4010E94BF
:100F000071099B01AC0160E070E08AE794E40E9403
:100F1000C9089B01AC016AA17BA18CA19DA10E9483
:100F2000280A4B015C0140925A0150925B01609289
:100F30005C0170925D01C0925E01D0925F01E0920F
:100F40006001F09261012328C9F520E030E0A90199
:100F5000C501B4010E94C408682F661F6627661F7A
:100F600083E10E941F01C501B4019F770E9417030E
:100F7000F894E0915901F0E0EE0FFF1FEF5AFE4F99
:100F800060817181603147E2740710F06FE077E2B1
:100F900090E080E00E949702789480E090E0892BB6
:100FA00009F40BCE0E94F401882309F406CE0E94B6
:100FB000000003CE812C912C5401B5CFC301B201A6
:100FC000662797FD639577278827992783E10E94F5
:100FD0001F01C301B20197FF07C0909580957095DE
:100FE00061957F4F8F4F9F4F603137E273078105C7
:100FF00091052CF060E070E080E89FEBB7CF0E9495
:101000009702B6CFE5E9F1E01382128288EE93E011
:10101000A0E0B0E084839583A683B78385E091E068
:101020009183808385EC90E09587848784EC90E0C1
:101030009787868780EC90E0918B808B81EC90E0A5
:10104000938B828B82EC90E0958B848B86EC90E086
:10105000978B868B118E128E138E148E0895A1E2BB
:101060001A2EAA1BBB1BFD010DC0AA1FBB1FEE1F22
:10107000FF1FA217B307E407F50720F0A21BB30B6D
:10108000E40BF50B661F771F881F991F1A9469F7E9
:1010900060957095809590959B01AC01BD01CF0145
:1010A0000895EE0FFF1F0590F491E02D099450581C
:1010B000BB27AA270E946F080C94E9090E94DB094C
:1010C00038F00E94E20920F039F49F3F19F426F429
:1010D0000C94D8090EF4E095E7FB0C94D209E92FA3
:1010E0000E94FA0958F3BA17620773078407950735
:1010F00020F079F4A6F50C941C0A0EF4E0950B2E62
:10110000BA2FA02D0B01B90190010C01CA01A00159
:101110001124FF27591B99F0593F50F4503E68F1B4
:101120001A16F040A22F232F342F4427585FF3CFF5
:10113000469537952795A795F0405395C9F77EF4C6
:101140001F16BA0B620B730B840BBAF09150A1F00F
:10115000FF0FBB1F661F771F881FC2F70EC0BA0F95
:10116000621F731F841F48F4879577956795B7951D
:10117000F7959E3F08F0B0CF9395880F08F0992718
:10118000EE0F9795879508950E94AE0908F481E0C7
:1011900008950E94DD080C94E9090E94E20958F0C4
:1011A0000E94DB0940F029F45F3F29F00C94D2093A
:1011B00051110C941D0A0C94D8090E94FA0968F385
:1011C0009923B1F3552391F3951B550BBB27AA2700
:1011D00062177307840738F09F5F5F4F220F331F3A
:1011E000441FAA1FA9F335D00E2E3AF0E0E832D002
:1011F00091505040E695001CCAF72BD0FE2F29D005
:10120000660F771F881FBB1F261737074807AB07D6
:10121000B0E809F0BB0B802DBF01FF2793585F4F4B
:101220003AF09E3F510578F00C94D2090C941D0AB7
:101230005F3FE4F3983ED4F3869577956795B7952D
:10124000F7959F5FC9F7880F911D9695879597F938
:101250000895E1E0660F771F881FBB1F62177307B1
:101260008407BA0720F0621B730B840BBA0BEE1FC6
:1012700088F7E09508950E9442096894B1110C9492
:101280001D0A08950E94020A88F09F5798F0B92F0E
:101290009927B751B0F0E1F0660F771F881F991FAB
:1012A0001AF0BA95C9F714C0B13091F00E941C0A27
:1012B000B1E008950C941C0A672F782F8827B85F37
:1012C00039F0B93FCCF3869577956795B395D9F703
:1012D0003EF490958095709561957F4F8F4F9F4F0D
:1012E0000895E89409C097FB3EF490958095709519
:1012F00061957F4F8F4F9F4F9923A9F0F92F96E962
:10130000BB279395F695879577956795B795F111D6
:10131000F8CFFAF4BB0F11F460FF1BC06F5F7F4F73
:101320008F4F9F4F16C0882311F096E911C0772385
:1013300021F09EE8872F762F05C0662371F096E88E
:10134000862F70E060E02AF09A95660F771F881F5D
:10135000DAF7880F9695879597F90895990F000801
:10136000550FAA0BE0E8FEEF16161706E807F90777
:10137000C0F012161306E407F50798F0621B730B12
:10138000840B950B39F40A2661F0232B242B252B93
:1013900021F408950A2609F4A140A6958FEF811D36
:1013A000811D089597F99F6780E870E060E00895D7
:1013B0009FEF80EC089500240A941616170618066D
:1013C0000906089500240A94121613061406050649
:1013D0000895092E0394000C11F4882352F0BB0FDA
:1013E00040F4BF2B11F460FF04C06F5F7F4F8F4F3D
:1013F0009F4F089557FD9058440F551F59F05F3F78
:1014000071F04795880F97FB991F61F09F3F79F026
:1014100087950895121613061406551FF2CF4695A8
:10142000F1DF08C0161617061806991FF1CF86952A
:101430007105610508940895E894BB27662777270E
:10144000CB0197F908950E94AE0908F48FEF089533
:101450000E943B0A0C94E9090E94DB0938F00E94C3
:10146000E20920F0952311F00C94D2090C94D809CC
:1014700011240C941D0A0E94FA0970F3959FC1F380
:10148000950F50E0551F629FF001729FBB27F00D32
:10149000B11D639FAA27F00DB11DAA1F649F662787
:1014A000B00DA11D661F829F2227B00DA11D621FD6
:1014B000739FB00DA11D621F839FA00D611D221F90
:1014C000749F3327A00D611D231F849F600D211D74
:1014D000822F762F6A2F11249F5750409AF0F1F0F7
:1014E00088234AF0EE0FFF1FBB1F661F771F881F60
:1014F00091505040A9F79E3F510580F00C94D209BD
:101500000C941D0A5F3FE4F3983ED4F386957795DB
:101510006795B795F795E7959F5FC1F7FE2B880F05
:10152000911D9695879597F90895FA01EE0FFF1F83
:10153000309621053105A1F16115710561F48038FE
:10154000BFE39B0749F168949038810561F08038CA
:10155000BFEF9B0741F099234AF5FF3FE1053105B5
:10156000210519F1E8940894E795D901AA2329F4F3
:10157000AB2FBE2FF85FD0F310C0FF5F70F4A695BD
:10158000E0F7F73950F019F0FF3A38F49F779F935E
:101590000DD00F9007FC9058089546F00C94D80990
:1015A00060E070E080E89FE308954FE79F775F93E6
:1015B0004F933F932F930E94900B2F913F914F9108
:1015C0005F910E94280A0C94ED0A29F416F00C94FD
:1015D000D2090C941C0A0C94D8090E94020AA8F3A0
:1015E0009638A0F707F80F92E8942BE33AEA48EB15
:1015F0005FE70E943E0A0F920F920F924DB75EB7BF
:101600000F920E94D80BE8E6F0E00E941F0B4F916A
:101610005F91EF91FF91E595EE1FFF1F49F0FE5797
:10162000E0684427EE0F441FFA95E1F74195550B0A
:101630000E94520B0F9007FE0C94460B0895DF9307
:10164000CF931F930F93FF92EF92DF927B018C0158
:10165000689406C0DA2EEF010E943B0AFE01E8946E
:10166000A5912591359145915591A6F3EF010E94E1
:101670006F08FE019701A801DA9469F7DF90EF90F7
:10168000FF900F911F91CF91DF9108959B01AC01C5
:1016900060E070E080E89FE30C94C9080C94D209E4
:1016A0000C940C0C0E94020AD8F39923C9F3940FEE
:1016B000511DA3F39150504094F059F0882332F01B
:1016C000660F771F881F91505040C1F79E3F51050C
:1016D0002CF7880F911D9695879597F908955F3F90
:1016E000ACF0983E9CF0BB27869577956795B795AB
:1016F00008F4B1609395C1F7BB0F58F711F460FF80
:10170000E8CF6F5F7F4F8F4F9F4FE3CF0C941D0A41
:1017100016F00C940C0C0C94D80968940C94D20913
:101720000E94020AA8F39923C1F3AEF3DF93CF938B
:101730001F930F93FF92C92FDD2788232AF021974B
:10174000660F771F881FDAF720E030E040E85FEB94
:101750009FE3883920F0803E38F021968F770E94F1
:101760005808E0E9F0E004C00E945808EDEBF0E012
:101770000E941F0B8B01BE01EC01FB2E6F577109FC
:101780007595771F880B990B0E94730928E132E742
:1017900041E35FE30E943B0AAF2D9801AE01FF9049
:1017A0000F911F91CF91DF910E946F080C94E9096E
:1017B000FA01DC01AA0FBB1F9B01AC01BF5728F443
:1017C000222733274427507820C0B75190F4AB2FFD
:1017D0000024469537952795011CA395D2F3002048
:1017E00071F0220F331F441FB395DAF30ED00C941F
:1017F000570861307105A0E88A07B94630F49B01AB
:10180000AC016627772788279078309621F02083CF
:1018100031834283538308959F3F31F0915020F4E8
:10182000879577956795B795880F911D96958795BC
:0818300097F90895F894FFCF29
:1018380001000000002A028A01B7017702E801C608
:1018480001DA01060708090A0B0C0D020304050E4C
:101858000F10123F065B4F666D7D077F6F777C39EF
:101868005E797100FF0100010000FFFF0000010028
:0818780001FF0020000D0A0031
:00000001FF
