:100000000C94A4000C94CC000C94CC000C94CC0068
:100010000C94CC000C94CC000C94CC000C94830376
:100020000C94CC000C94CC000C94CC000C94CC0020
:100030000C94CC000C94CC000C94CC000C94CC0010
:100040000C94E1020C94CC000C9451030C942B03FF
:100050000C94CC000C94CC000C94CC000C94CC00F0
:100060000C94CC000C94CC0007634236B79BD8A705
:100070001A39685618AEBAAB558C1D3CB7CC5763CD
:10008000BD6DEDFD753EF6177231BF000000803F7B
:1000900008000000BE922449123EABAAAA2ABECD97
:1000A000CCCC4C3E00000080BEABAAAAAA3E000009
:1000B0000000BF000000803F000000000008417801
:1000C000D3BB4387D1133D190E3CC3BD4282AD2B38
:1000D0003E68EC8276BED98FE1A93E4C80EFFFBE30
:1000E00001C4FF7F3F00000000000000000024006A
:1000F00027002A0000000000250028002B00000037
:10010000000023002600290004040404040404045D
:1001100002020202020203030303030301020408B2
:100120001020408001020408102001020408102061
:1001300000000008000201000003040700000000A6
:10014000000000000F04590811241FBECFEFD8E0B3
:10015000DEBFCDBF11E0A0E0B1E0EEE6FBE102C002
:1001600005900D92AE34B107D9F722E0AEE4B1E0CC
:1001700001C01D92AD33B207E1F710E0C3EAD0E051
:1001800004C02197FE010E94BC08C23AD107C9F7FA
:100190000E94F2040C94AA0D0C940000CF92DF92FE
:1001A000EF92FF920F931F93CF93DF93603127E27B
:1001B00072078105910520F06FE077E280E090E022
:1001C000D0E0C0E02AE0C22ED12CE12CF12C20910D
:1001D000300230E0C217D307A4F4215031092C1BA0
:1001E0003D0B0091360210913702020F131FA70139
:1001F00096010E948608F8016083B901CA01219620
:10020000E6CFDF91CF911F910F91FF90EF90DF909C
:10021000CF900895833081F028F4813099F08230B6
:10022000A9F008958730A9F08830C9F08430B1F47E
:10023000809180008F7D03C0809180008F778093B4
:100240008000089584B58F7784BD089584B58F7D2F
:10025000FBCF8091B0008F778093B000089580919C
:10026000B0008F7DF9CFCF93DF93282F30E0F901D5
:10027000E05DFE4F8491F901E45EFE4FD491F901F7
:10028000E85FFE4FC491CC23A1F081110E940A01C6
:10029000EC2FF0E0EE0FFF1FE250FF4FA591B4915D
:1002A000EC91ED2381E090E009F480E0DF91CF91C3
:1002B000089580E090E0FACF1F93CF93DF93282F2B
:1002C00030E0F901E05DFE4F8491F901E45EFE4FFC
:1002D000D491F901E85FFE4FC491CC23A9F0162F09
:1002E00081110E940A01EC2FF0E0EE0FFF1FEC508D
:1002F000FF4FA591B4918FB7F894EC91111108C0FC
:10030000D095DE23DC938FBFDF91CF911F910895AD
:10031000DE2BF8CFCF93DF9390E0FC01E45EFE4F3D
:100320002491885F9E4FFC0184918823D1F090E056
:10033000880F991FFC01E651FF4FA591B491FC0174
:10034000EC50FF4FC591D491623071F49FB7F8948F
:100350003C91822F809583238C93E8812E2B2883D8
:100360009FBFDF91CF9108958FB7F894EC912E2B1A
:100370002C938FBFF6CF2FB7F89460918F017091B7
:10038000900180919101909192012FBF0895AF92B9
:10039000BF92CF92DF92EF92FF920F931F93CF9372
:1003A000DF936C017B018B01040F151FEB015E01D4
:1003B000AE18BF08C017D10759F06991D601ED9169
:1003C000FC910190F081E02DC6010995892B79F708
:1003D000C501DF91CF911F910F91FF90EF90DF90BA
:1003E000CF90BF90AF900895FC01538D448D252F81
:1003F00030E0842F90E0821B930B541710F0CF96BF
:10040000089501970895FC01918D828D981761F0F0
:10041000A28DAE0FBF2FB11D5D968C91928D9F5F07
:100420009F73928F90E008958FEF9FEF0895FC01E6
:10043000918D828D981731F0828DE80FF11D858D99
:1004400090E008958FEF9FEF0895FC01918D228D2C
:10045000892F90E0805C9F4F821B91098F739927B1
:10046000089583E991E00E94250221E0892B09F497
:1004700020E0822F089580E090E0892B29F00E94EF
:10048000310281110C9400000895FC01A48DA80F85
:10049000B92FB11DA35ABF4F2C91848D90E00196C6
:1004A0008F739927848FA689B7892C93A089B189E6
:1004B0008C91837080648C93938D848D981306C087
:1004C0000288F389E02D80818F7D80830895EF92EB
:1004D000FF920F931F93CF93DF93EC0181E0888FFE
:1004E0009B8D8C8D98131AC0E889F989808185FFCE
:1004F00015C09FB7F894EE89FF896083E889F98970
:1005000080818370806480839FBF81E090E0DF9171
:10051000CF911F910F91FF90EF900895F62E0B8DC4
:1005200010E00F5F1F4F0F731127E02E8C8D8E117F
:100530000CC00FB607FCFACFE889F989808185FFE6
:10054000F5CFCE010E944502F1CFEB8DEC0FFD2FD0
:10055000F11DE35AFF4FF0829FB7F8940B8FEA89A1
:10056000FB8980818062CFCFCF93DF93EC01888DB0
:100570008823B9F0AA89BB89E889F9898C9185FD1E
:1005800003C0808186FD0DC00FB607FCF7CF8C91AC
:1005900085FFF2CF808185FFEDCFCE010E9445021D
:1005A000E9CFDF91CF910895FC0101900020E9F798
:1005B0003197AF01481B590BBC0183E991E00C94C2
:1005C000C7011F920F920FB60F9211242F933F93E2
:1005D0008F939F93AF93BF9380918F0190919001E0
:1005E000A0919101B091920130918E0123E0230FEF
:1005F0002D3758F50196A11DB11D20938E018093D2
:100600008F0190939001A0939101B09392018091FA
:100610008A0190918B01A0918C01B0918D0101967E
:10062000A11DB11D80938A0190938B01A0938C0131
:10063000B0938D01BF91AF919F918F913F912F9179
:100640000F900FBE0F901F90189526E8230F02966B
:10065000A11DB11DD2CF1F920F920FB60F92112480
:100660002F933F934F935F936F937F938F939F93BA
:10067000AF93BF93EF93FF9383E991E00E9445020C
:10068000FF91EF91BF91AF919F918F917F916F916A
:100690005F914F913F912F910F900FBE0F901F9040
:1006A00018951F920F920FB60F9211242F938F93CC
:1006B0009F93EF93FF93E091A301F091A4018081B8
:1006C000E091A901F091AA0182FD1BC09081809167
:1006D000AC018F5F8F732091AD01821741F0E091E3
:1006E000AC01F0E0ED56FE4F958F8093AC01FF9189
:1006F000EF919F918F912F910F900FBE0F901F90B0
:1007000018958081F4CF1F920F920FB60F9211248B
:10071000EF92FF920F931F932F933F934F935F930B
:100720006F937F938F939F93AF93BF93CF93DF93F9
:10073000EF93FF9300914E01C02FD0E0E09136027D
:10074000F0913702EC0FFD1FE081EF70F0E0EE5EFC
:10075000FE4FE0808091380290E0002E02C0959517
:1007600087950A94E2F780FF02C06894E7F810E0EA
:1007700080913002181760F4E0913202F091330258
:10078000E10FF11D61E080810E945C011F5FF0CFED
:1007900010E0F12C80913102181798F4B701012E66
:1007A00002C0759567950A94E2F76170E091340292
:1007B000F0913502E10FF11D80810E945C011F5F05
:1007C000E9CF80913002081750F4E0913202F091A5
:1007D0003302EC0FFD1F60E080810E945C01CE01BE
:1007E00001966091300270E00E94720880934E0181
:1007F000FF91EF91DF91CF91BF91AF919F918F9139
:100800007F916F915F914F913F912F911F910F9128
:10081000FF90EF900F900FBE0F901F9018950F93C1
:100820001F93CF93109296011092950188EE93E05A
:10083000A0E0B0E08093970190939801A093990174
:10084000B0939A018AE391E090939401809393018D
:1008500085EC90E09093A00180939F0184EC90E060
:100860009093A2018093A10180EC90E09093A40169
:100870008093A30181EC90E09093A6018093A50161
:1008800082EC90E09093A8018093A70186EC90E021
:100890009093AA018093A9011092AC011092AD012E
:1008A0001092AE011092AF0184E08093300288E094
:1008B0008093310284E090E00E94850C9093330293
:1008C0008093320280E090913002891778F4282FCB
:1008D00030E0F901E85FFE4F9081E0913202F09143
:1008E0003302E20FF31F90838F5FEDCF80913102CF
:1008F00090E0009711F481E090E00E94850C9093C5
:1009000035028093340280E090913102891778F4A7
:10091000282F30E0F901E050FF4F9081E091340240
:10092000F0913502E20FF31F90838F5FEDCF80913E
:10093000300290E0009711F481E090E00E94850C75
:100940009093370280933602C0E080913002C8173E
:10095000C0F40C2F10E0E0913202F0913302E00F6E
:10096000F11F61E080810E948A01E0913202F091E2
:100970003302E00FF11F61E080810E945C01CF5FD4
:10098000E4CFC0E080913102C817C0F40C2F10E012
:10099000E0913402F0913502E00FF11F61E08081B7
:1009A0000E948A01E0913402F0913502E00FF11FBC
:1009B00060E080810E945C01CF5FE4CF109238023A
:1009C00080E090913002891748F4E0913602F0916E
:1009D0003702E80FF11D10828F5FF3CFCF911F9187
:1009E0000F910895CF93DF93CDB7DEB7A5970FB6DC
:1009F000F894DEBF0FBECDBF789484B5826084BD0D
:100A000084B5816084BD85B5826085BD85B5816012
:100A100085BD80916E00816080936E001092810090
:100A2000809181008260809381008091810081604B
:100A3000809381008091800081608093800080910C
:100A4000B10084608093B1008091B0008160809398
:100A5000B00080917A00846080937A0080917A005F
:100A6000826080937A0080917A00816080937A001E
:100A700080917A00806880937A001092C100E091A2
:100A8000A301F091A40182E08083E0919F01F091A5
:100A9000A0011082E091A101F091A2019FEC90834E
:100AA0001092AB01E091A701F091A80126E020830C
:100AB000E091A501F091A601908190619083E09171
:100AC000A501F091A601908198609083E091A50125
:100AD000F091A601908190689083E091A501F0913A
:100AE000A60190819F7D9083F8948093B0008093BD
:100AF00070002093B1008AEF8093B300789462E095
:100B000082E10E948A0161E083E10E948A0160E043
:100B100083E10E945C0162E08EE00E948A0162E053
:100B20008FE00E948A018EE00E9433018C018FE0E9
:100B30000E943301000F111F082B009365017EE016
:100B4000272E332433948091820181110CC00E949E
:100B5000BB0160937E0170937F018093800190932D
:100B60008101309282018091760181110CC00E9436
:100B7000BB01609372017093730180937401909331
:100B800075013092760180916A0181110CC00E943A
:100B9000BB01609366017093670180936801909335
:100BA000690130926A010E94BB0100917E0110919F
:100BB0007F012091800130918101AB01BC01401B7C
:100BC000510B620B730B443651056105710508F436
:100BD0005EC0D901C8018C599F4FAF4FBF4F809362
:100BE0007E0190937F01A0938001B0938101E2E2A6
:100BF000F1E05FE4E52E51E0F52ED70181918E30D2
:100C000008F08E508770806480937C0080917A0019
:100C1000806480937A0080917A0086FDFCCF809179
:100C20007800909179008D939D9326E231E02E1704
:100C30003F0721F7F701219131917F0150E040E01A
:100C400019A28E010F5D1F4FCA01B9012AE030E0E1
:100C500040E050E00E948608605DF80162938F01D9
:100C6000211531054105510579F7309719F0CF016C
:100C70000E94D40288E491E00E94D402F7E5EF16C6
:100C8000F1E0FF06B9F68AE491E00E94D4028EE01A
:100C90000E943301182F8FE00E943301110F812B26
:100CA0000091610110916201209163013091640112
:100CB000E091650144E0E49FF0011124E82BEF701E
:100CC000F0E0EA5DFE4F4081042E000C550B660BF0
:100CD000770B400F511F621F731F409361015093A8
:100CE00062016093630170936401809365010E94C7
:100CF000BB01009172011091730120917401309138
:100D00007501AB01BC01401B510B620B730B403DE5
:100D100057406105710590F1D901C8018053984F82
:100D2000AF4FBF4F8093720190937301A0937401F2
:100D3000B09375018091570190E0019683709927D7
:100D400080935701F894E1E001C0EE0F8A95EAF72D
:100D5000E0933802E0915701F0E0EE0FFF1FE15BF6
:100D6000FE4F608171816031F7E27F0710F06FE024
:100D700077E290E080E00E94CE0078940E94BB0170
:100D8000009166011091670120916801309169011D
:100D9000AB01BC01401B510B620B730B483C51056E
:100DA0006105710508F41BC1D901C80188539F4F23
:100DB000AF4FBF4F8093660190936701A093680186
:100DC000B093690182E10E9433018C0181E0011539
:100DD000110509F080E0809360014090610150901E
:100DE000620160906301709064010E94BB016B011D
:100DF0007C0180915C0190915D01A0915E01B091B8
:100E00005F0146015701881A990AAA0ABB0A09F428
:100E1000A5C08091580190915901A0915A01B091BB
:100E20005B01A3019201281B390B4A0B5B0BCA0122
:100E3000B9010E94DE096AA37BA38CA39DA3C5010F
:100E4000B4010E94DC099B01AC0160E070E08AE71C
:100E500094E40E9434099B01AC016AA17BA18CA19E
:100E60009DA10E94930A4B015C014092580150924F
:100E7000590160925A0170925B01C0925C01D0925C
:100E80005D01E0925E01F0925F010115110509F02C
:100E9000DDC020E030E0A901C501B4010E942F09A6
:100EA000682F661F6627661F83E10E945C01E89435
:100EB000B7F820E030E0A901C501B4010E948E0A14
:100EC00087FDB2C033E0E32EF12CB7010F2C000CEC
:100ED000880B990B0E94DE099B01AC0160E070E079
:100EE00080E291E40E94000B9B01AC01C501B401BA
:100EF0000E94930A2B013C0120E030E0A9010E94EE
:100F00008E0A20E030E040E05FE387FD2BC0C301A4
:100F1000B2010E94C3080E94A609F62FE72F382FBE
:100F2000292F603177428105910508F151E0E51ADA
:100F3000F10858F690E080E020913002821708F026
:100F40004EC08430910509F44AC0E0913602F09118
:100F50003702E80FF91F20820196EECF812C912CE9
:100F6000540183CFC301B2010E94C208D4CFC09004
:100F70003002D12C0C151D050CF504301105F1F0D3
:100F800091E0C91AD108C01AD10A40913602509195
:100F90003702C40ED51E6F2F7E2F832F922F2AE08B
:100FA00030E040E050E00E948608F6016083F22FB6
:100FB000E32F342F252F0F5F1F4FD9CFE114F104FA
:100FC00081F1C60101978E199F098C159D0548F581
:100FD000F1E001C0FF0F8A95EAF7F0933802F89428
:100FE000E0915701F0E0EE0FFF1FE15BFE4F6081E3
:100FF0007181603137E2730710F06FE077E290E0C3
:1010000080E00E94CE00789440E050E0452B09F447
:101010009ACD0E943102882309F493CD0E940000EA
:1010200090CD10923802DBCF90E080E0209130022A
:101030008217A8F68430910591F2E0913602F09182
:101040003702E80FF91F20820196F0CFD301C201C9
:10105000BB0F880B982FDC01682F617083E10E9421
:101060005C01C301B20197FF07C090958095709510
:1010700061957F4F8F4F9F4F603127E27207810547
:101080009105A4F090E080E020913002821708F0F2
:10109000A6CF8430910509F4A2CFE0913602F091F9
:1010A0003702E80FF91F20820196EECF0E94CE0092
:1010B00096CF8091320290913302009711F00E94F6
:1010C000210D8091340290913502009711F00E9419
:1010D000210D8091360290913702009711F00C9407
:1010E000210D089597FB072E16F4009407D077FD85
:1010F00009D00E94A80807FC05D03EF49095819580
:101100009F4F0895709561957F4F0895A1E21A2E23
:10111000AA1BBB1BFD010DC0AA1FBB1FEE1FFF1F9B
:10112000A217B307E407F50720F0A21BB30BE40BEB
:10113000F50B661F771F881F991F1A9469F7609532
:101140007095809590959B01AC01BD01CF010895EC
:10115000AA1BBB1B51E107C0AA1FBB1FA617B707DD
:1011600010F0A61BB70B881F991F5A95A9F78095F9
:101170009095BC01CD010895EE0FFF1F0590F491ED
:10118000E02D09945058BB27AA270E94DA080C9436
:10119000540A0E94460A38F00E944D0A20F039F4A1
:1011A0009F3F19F426F40C94430A0EF4E095E7FBF4
:1011B0000C943D0AE92F0E94650A58F3BA1762079A
:1011C00073078407950720F079F4A6F50C94870A35
:1011D0000EF4E0950B2EBA2FA02D0B01B901900152
:1011E0000C01CA01A0011124FF27591B99F0593F96
:1011F00050F4503E68F11A16F040A22F232F342FDE
:101200004427585FF3CF469537952795A795F0402B
:101210005395C9F77EF41F16BA0B620B730B840B40
:10122000BAF09150A1F0FF0FBB1F661F771F881FF8
:10123000C2F70EC0BA0F621F731F841F48F4879550
:1012400077956795B795F7959E3F08F0B0CF939542
:10125000880F08F09927EE0F9795879508950E94BB
:10126000190A08F481E008950E9448090C94540A70
:101270000E944D0A58F00E94460A40F029F45F3F50
:1012800029F00C943D0A51110C94880A0C94430ADD
:101290000E94650A68F39923B1F3552391F3951BD6
:1012A000550BBB27AA2762177307840738F09F5F87
:1012B0005F4F220F331F441FAA1FA9F335D00E2EF4
:1012C0003AF0E0E832D091505040E695001CCAF761
:1012D0002BD0FE2F29D0660F771F881FBB1F261724
:1012E00037074807AB07B0E809F0BB0B802DBF01FB
:1012F000FF2793585F4F3AF09E3F510578F00C94CA
:101300003D0A0C94880A5F3FE4F3983ED4F3869537
:1013100077956795B795F7959F5FC9F7880F911DEA
:101320009695879597F90895E1E0660F771F881FD6
:10133000BB1F621773078407BA0720F0621B730B89
:10134000840BBA0BEE1F88F7E09508950E94AD0953
:101350006894B1110C94880A08950E946D0A88F06F
:101360009F5798F0B92F9927B751B0F0E1F0660F69
:10137000771F881F991F1AF0BA95C9F714C0B130AA
:1013800091F00E94870AB1E008950C94870A672FB4
:10139000782F8827B85F39F0B93FCCF386957795D9
:1013A0006795B395D9F73EF49095809570956195C2
:1013B0007F4F8F4F9F4F0895E89409C097FB3EF4ED
:1013C00090958095709561957F4F8F4F9F4F992392
:1013D000A9F0F92F96E9BB279395F6958795779510
:1013E0006795B795F111F8CFFAF4BB0F11F460FFD0
:1013F0001BC06F5F7F4F8F4F9F4F16C0882311F028
:1014000096E911C0772321F09EE8872F762F05C03B
:10141000662371F096E8862F70E060E02AF09A95D6
:10142000660F771F881FDAF7880F9695879597F9CB
:101430000895990F0008550FAA0BE0E8FEEF161665
:101440001706E807F907C0F012161306E407F507B8
:1014500098F0621B730B840B950B39F40A2661F02C
:10146000232B242B252B21F408950A2609F4A140CF
:10147000A6958FEF811D811D089597F99F6780E8DC
:1014800070E060E008959FEF80EC089500240A94D6
:101490001616170618060906089500240A9412164F
:1014A0001306140605060895092E0394000C11F482
:1014B000882352F0BB0F40F4BF2B11F460FF04C02F
:1014C0006F5F7F4F8F4F9F4F089557FD9058440F88
:1014D000551F59F05F3F71F04795880F97FB991F93
:1014E00061F09F3F79F08795089512161306140650
:1014F000551FF2CF4695F1DF08C0161617061806DD
:10150000991FF1CF86957105610508940895E894B7
:10151000BB2766277727CB0197F908950E94190A00
:1015200008F48FEF08950E94A60A0C94540A0E94B2
:10153000460A38F00E944D0A20F0952311F00C94D1
:101540003D0A0C94430A11240C94880A0E94650AEF
:1015500070F3959FC1F3950F50E0551F629FF00106
:10156000729FBB27F00DB11D639FAA27F00DB11D1F
:10157000AA1F649F6627B00DA11D661F829F2227A8
:10158000B00DA11D621F739FB00DA11D621F839F2F
:10159000A00D611D221F749F3327A00D611D231F05
:1015A000849F600D211D822F762F6A2F11249F5753
:1015B00050409AF0F1F088234AF0EE0FFF1FBB1F56
:1015C000661F771F881F91505040A9F79E3F510515
:1015D00080F00C943D0A0C94880A5F3FE4F3983E37
:1015E000D4F3869577956795B795F795E7959F5FBF
:1015F000C1F7FE2B880F911D9695879597F9089551
:10160000FA01EE0FFF1F309621053105A1F161159A
:10161000710561F48038BFE39B0749F16894903805
:10162000810561F08038BFEF9B0741F099234AF5AF
:10163000FF3FE1053105210519F1E8940894E7958C
:10164000D901AA2329F4AB2FBE2FF85FD0F310C025
:10165000FF5F70F4A695E0F7F73950F019F0FF3A04
:1016600038F49F779F930DD00F9007FC9058089502
:1016700046F00C94430A60E070E080E89FE3089530
:101680004FE79F775F934F933F932F930E94FB0BFE
:101690002F913F914F915F910E94930A0C94580BA8
:1016A00029F416F00C943D0A0C94870A0C94430A12
:1016B0000E946D0AA8F39638A0F707F80F92E894F5
:1016C0002BE33AEA48EB5FE70E94A90A0F920F92D8
:1016D0000F924DB75EB70F920E94430CE8E6F0E020
:1016E0000E948A0B4F915F91EF91FF91E595EE1F5C
:1016F000FF1F49F0FE57E0684427EE0F441FFA959C
:10170000E1F74195550B0E94BD0B0F9007FE0C941D
:10171000B10B0895DF93CF931F930F93FF92EF9236
:10172000DF927B018C01689406C0DA2EEF010E94E3
:10173000A60AFE01E894A591259135914591559110
:10174000A6F3EF010E94DA08FE019701A801DA94DE
:1017500069F7DF90EF90FF900F911F91CF91DF918C
:1017600008959B01AC0160E070E080E89FE30C9479
:1017700034090C943D0A0C94770C0E946D0AD8F33E
:101780009923C9F3940F511DA3F39150504094F045
:1017900059F0882332F0660F771F881F9150504010
:1017A000C1F79E3F51052CF7880F911D969587959F
:1017B00097F908955F3FACF0983E9CF0BB27869563
:1017C00077956795B79508F4B1609395C1F7BB0F0E
:1017D00058F711F460FFE8CF6F5F7F4F8F4F9F4F37
:1017E000E3CF0C94880A16F00C94770C0C94430AFF
:1017F00068940C943D0A0E946D0AA8F39923C1F3E2
:10180000AEF3DF93CF931F930F93FF92C92FDD2782
:1018100088232AF02197660F771F881FDAF720E0C8
:1018200030E040E85FEB9FE3883920F0803E38F0FD
:1018300021968F770E94C308E0E9F0E004C00E947F
:10184000C308EDEBF0E00E948A0B8B01BE01EC01B6
:10185000FB2E6F5771097595771F880B990B0E94A6
:10186000DE0928E132E741E35FE30E94A60AAF2DDB
:101870009801AE01FF900F911F91CF91DF910E94CF
:10188000DA080C94540AFA01DC01AA0FBB1F9B0171
:10189000AC01BF5728F4222733274427507820C0B3
:1018A000B75190F4AB2F0024469537952795011C2E
:1018B000A395D2F3002071F0220F331F441FB3957C
:1018C000DAF30ED00C94C20861307105A0E88A07E3
:1018D000B94630F49B01AC016627772788279078BA
:1018E000309621F0208331834283538308959F3FB4
:1018F00031F0915020F4879577956795B795880FCB
:10190000911D9695879597F908950F931F93CF93FF
:10191000DF938230910510F482E090E0E0913B0289
:10192000F0913C0230E020E0B0E0A0E0309799F484
:101930002115310509F44AC0281B390B2430310523
:10194000D8F58A819B816115710589F1FB0193832B
:101950008283FE0111C040815181028113814817A9
:101960005907E0F04817590799F4109761F012965B
:101970000C93129713961C933296CF01DF91CF915F
:101980001F910F91089500933B0210933C02F4CFF6
:101990002115310551F04217530738F0A901DB0139
:1019A0009A01BD01DF01F801C1CFEF01F9CF90939A
:1019B0003C0280933B02CDCFFE01E20FF31F8193E7
:1019C00091932250310939832883D7CF209139024E
:1019D00030913A02232B41F420910E0130910F01F6
:1019E00030933A022093390220910C0130910D017D
:1019F0002115310541F42DB73EB7409110015091AA
:101A00001101241B350BE0913902F0913A02E217E3
:101A1000F307A0F42E1B3F0B2817390778F0AC0111
:101A20004E5F5F4F2417350748F04E0F5F1F5093EE
:101A30003A0240933902819391939FCFF0E0E0E026
:101A40009CCFCF93DF930097E9F0FC01329713828C
:101A50001282A0913B02B0913C02ED0130E020E007
:101A60001097A1F420813181820F931F20913902B8
:101A700030913A022817390709F061C0F0933A0211
:101A8000E0933902DF91CF910895EA01CE17DF0785
:101A9000E8F54A815B819E0141155105B1F7E901E5
:101AA000FB83EA8349915991C40FD51FEC17FD07B9
:101AB00061F4808191810296840F951FE9019983D9
:101AC0008883828193819B838A83F0E0E0E0129691
:101AD0008D919C9113970097B9F52D913C91119799
:101AE000CD010296820F931F2091390230913A0264
:101AF0002817390739F6309751F510923C021092A9
:101B00003B02B0933A02A0933902BCCFD383C28385
:101B100040815181840F951FC817D90761F44E5F2A
:101B20005F4F88819981480F591F518340838A8173
:101B30009B81938382832115310509F0B0CFF09307
:101B40003C02E0933B029ECFFD01DC01C0CF13823B
:101B50001282D7CF10E0C3EAD0E004C0FE010E9499
:0E1B6000BC082196C43AD107C9F7F894FFCF0C
:101B6E00060708090A0B0C0D0203040500003D02CE
:101B7E0080003F065B4F666D7D077F6F777C395E19
:101B8E0079710E0F101200FF0100010000FFFF001F
:101B9E0000010001FF00000000006702C701F40110
:0E1BAE00B40225020302170220000D0A0000F7
:00000001FF
