:100000000C945D000C9485000C9485000C94850084
:100010000C9485000C9485000C9485000C941D03B1
:100020000C9485000C9485000C9485000C9485003C
:100030000C9485000C9485000C9485000C9485002C
:100040000C947B020C9485000C94EB020C94C5027A
:100050000C9485000C9485000C9485000C9485000C
:100060000C9485000C9485000000000024002700FB
:100070002A0000000000250028002B0004040404CE
:100080000404040402020202020203030303030342
:10009000010204081020408001020408102001021F
:1000A00004081020000000080002010000030407FB
:1000B00000000000000000008A0511241FBECFEFE1
:1000C000D8E0DEBFCDBF11E0A0E0B1E0E2ECFBE0A4
:1000D00002C005900D92A433B107D9F722E0A4E342
:1000E000B1E001C01D92A430B207E1F710E0CDE508
:1000F000D0E004C02197FE010E94D905CC35D1077C
:10010000C9F70E9487030C94DF050C94000090E06F
:10011000FC01EC55FF4F2491FC01E057FF4F349157
:10012000FC01E458FF4FE491EE23B9F0222339F0AB
:100130002330F1F098F4213009F1223019F1F0E088
:10014000EE0FFF1FEE58FF4FA591B4918FB7F894B3
:10015000EC9130953E233C938FBF08952730A9F052
:100160002830C9F0243059F7809180008F7D03C07A
:10017000809180008F7780938000E1CF84B58F7766
:1001800084BDDDCF84B58F7DFBCF8091B0008F77AC
:100190008093B000D4CF8091B0008F7DF9CF90E0F4
:1001A000FC01E057FF4F249184589F4FFC0184913C
:1001B000882399F090E0880F991FFC01E859FF4FC0
:1001C000A591B491FC01EE58FF4F859194918FB7A2
:1001D000F894EC91E22BEC938FBF0895AF92BF920D
:1001E000CF92DF92EF92FF920F931F93CF93DF9303
:1001F0006C017B018B01040F151FEB015E01AE1832
:10020000BF08C017D10759F06991D601ED91FC9153
:100210000190F081E02DC6010995892B79F7C50180
:10022000DF91CF911F910F91FF90EF90DF90CF90D2
:10023000BF90AF900895FC01538D448D252F30E081
:10024000842F90E0821B930B541710F0CF960895E3
:1002500001970895FC01918D828D981761F0A28D10
:10026000AE0FBF2FB11D5D968C91928D9F5F9F73D6
:10027000928F90E008958FEF9FEF0895FC01918D8C
:10028000828D981731F0828DE80FF11D858D90E0F9
:1002900008958FEF9FEF0895FC01918D228D892F96
:1002A00090E0805C9F4F821B91098F73992708957E
:1002B00087E691E00E944C0121E0892B09F420E0BF
:1002C000822F089580E090E0892B29F00E94580148
:1002D00081110C9400000895FC01A48DA80FB92F82
:1002E000B11DA35ABF4F2C91848D90E001968F735E
:1002F0009927848FA689B7892C93A089B1898C917D
:10030000837080648C93938D848D981306C00288CB
:10031000F389E02D80818F7D80830895EF92FF9295
:100320000F931F93CF93DF93EC0181E0888F9B8D18
:100330008C8D98131AC0E889F989808185FF15C0D2
:100340009FB7F894EE89FF896083E889F9898081F5
:100350008370806480839FBF81E090E0DF91CF91C4
:100360001F910F91FF90EF900895F62E0B8D10E0E6
:100370000F5F1F4F0F731127E02E8C8D8E110CC055
:100380000FB607FCFACFE889F989808185FFF5CFA0
:10039000CE010E946C01F1CFEB8DEC0FFD2FF11D12
:1003A000E35AFF4FF0829FB7F8940B8FEA89FB89DD
:1003B00080818062CFCFCF93DF93EC01888D88233B
:1003C000B9F0AA89BB89E889F9898C9185FD03C0B8
:1003D000808186FD0DC00FB607FCF7CF8C9185FF9D
:1003E000F2CF808185FFEDCFCE010E946C01E9CF75
:1003F000DF91CF9108958F929F92AF92BF92CF924B
:10040000DF92EF92FF92CF93DF936B017C0180E14B
:10041000C81687E2D806E104F10430F04FE0C42E9C
:1004200047E2D42EE12CF12C3AE0832E912CA12C22
:10043000B12CC701B601A50194010E94B7056093D4
:100440003C01CA01B901A50194010E94B70560935E
:100450003B01C701B60124E630E040E050E00E94D5
:10046000B705CA01B901A50194010E94B7056093BF
:100470003A01C701B60128EE33E040E050E00E94A7
:10048000B705209339016091000170E0C9E3D1E024
:10049000A5E3B1E090E080E0E991AB01082E02C055
:1004A000559547950A94E2F75695542F442757954A
:1004B0004795F0E0E15EFE4F2081242B2D930196BD
:1004C0008430910549F7DF91CF91FF90EF90DF9055
:1004D000CF90BF90AF909F908F900895FC010190B6
:1004E0000020E9F73197AF01481B590BBC0187E6A3
:1004F00091E00C94EE001F920F920FB60F92112410
:100500002F933F938F939F93AF93BF9380916301FA
:1005100090916401A0916501B091660130916201F2
:1005200023E0230F2D3758F50196A11DB11D20930F
:1005300062018093630190936401A0936501B0937D
:10054000660180915E0190915F01A0916001B09180
:1005500061010196A11DB11D80935E0190935F0121
:10056000A0936001B0936101BF91AF919F918F9172
:100570003F912F910F900FBE0F901F90189526E876
:10058000230F0296A11DB11DD2CF1F920F920FB65D
:100590000F9211242F933F934F935F936F937F9309
:1005A0008F939F93AF93BF93EF93FF9387E691E071
:1005B0000E946C01FF91EF91BF91AF919F918F913C
:1005C0007F916F915F914F913F912F910F900FBE4F
:1005D0000F901F9018951F920F920FB60F92112433
:1005E0002F938F939F93EF93FF93E0917701F09177
:1005F00078018081E0917D01F0917E0182FD1BC038
:100600009081809180018F5F8F732091810182178B
:1006100041F0E0918001F0E0E959FE4F958F809321
:100620008001FF91EF919F918F912F910F900FBEBD
:100630000F901F9018958081F4CF1F920F920FB6E4
:100640000F9211242F933F934F935F936F937F9358
:100650008F939F93AF93EF93FF93A09134016A2FF1
:1006600070E0FB01EB5CFE4F2081439A8BB18C6301
:100670008BB9822F90E03BB1AC01E6E0440F551FEF
:10068000EA95E1F74074FC01F595E795F695FE2FA4
:10069000EE27F795E7954E2B3F73432B4BB935B1BA
:1006A000959587959595879583703C7F832B85B924
:1006B00085B122952F70220F220F837C282B25B91C
:1006C000A43060F42BB16E5F7F4F81E090E001C0F9
:1006D000880F6A95EAF7809582238BB943988091B9
:1006E000340190E001968370992780933401FF9143
:1006F000EF91AF919F918F917F916F915F914F910A
:100700003F912F910F900FBE0F901F901895CF9390
:10071000DF93CDB7DEB7A1970FB6F894DEBF0FBE5B
:10072000CDBF789484B5826084BD84B5816084BD7A
:1007300085B5826085BD85B5816085BD80916E007F
:10074000816080936E0010928100809181008260B0
:1007500080938100809181008160809381008091ED
:1007600080008160809380008091B10084608093DC
:10077000B1008091B00081608093B00080917A00D8
:10078000846080937A0080917A00826080937A00FE
:1007900080917A00816080937A0080917A008068ED
:1007A00080937A001092C10082E00E94CF0082E024
:1007B0000E94870083E00E94CF0083E00E948700B0
:1007C00084E00E94CF0084E00E94870085E00E94C0
:1007D000CF0085E00E94870003E111E02BE1C22EEB
:1007E00021E0D22EF801F1908F018F2D0E94CF00D1
:1007F0008F2D0E948700C016D106A1F73B9A43981F
:10080000E0917701F091780182E08083E0917301BB
:10081000F09174011082E0917501F09176019FECE6
:10082000908310927F01E0917B01F0917C0126E0A2
:100830002083E0917901F0917A0190819061908319
:10084000E0917901F0917A01908198609083E09134
:100850007901F0917A01908190689083E09179011B
:10086000F0917A0190819F7D9083F8948093B000FD
:10087000809370002093B1008AEF8093B300789446
:10088000BFE12B2EB1E03B2E15E4812E11E0912E1D
:100890000AE0402E512C612C712CCC24C394D12C15
:1008A00090E0A92E90E0B92E80915601811116C0DA
:1008B0002FB7F8948091630190916401A091650134
:1008C000B09166012FBF8093520190935301A09382
:1008D0005401B0935501F1E0F093560180914A0123
:1008E000811116C02FB7F894809163019091640133
:1008F000A0916501B09166012FBF8093460190934E
:100900004701A0934801B093490121E020934A0197
:100910008FB7F89440916301509164016091650133
:10092000709166018FBF8091520190915301A09107
:100930005401B0915501481B590B6A0B7B0B44368F
:1009400051056105710508F456C08C599F4FAF4F92
:10095000BF4F8093520190935301A0935401B093E1
:100960005501EBE1F1E0ADE3EA2EA1E0FA2ED7016B
:1009700081918E3008F08E508770806480937C0067
:1009800080917A00806480937A0080917A0086FD5D
:10099000FCCF80917800909179008D939D932E16D5
:1009A0003F0631F7F701219131917F0150E040E09E
:1009B00019A28E010F5D1F4FCA01B901A301920157
:1009C0000E94B705605DF80162938F012115310522
:1009D0004105510589F7309719F0CF010E946E0249
:1009E0008FE291E00E946E028E149F04D9F681E39B
:1009F00091E00E946E028FB7F8944091630150918C
:100A0000640160916501709166018FBF809146011C
:100A100090914701A0914801B0914901481B590BA1
:100A20006A0B7B0B403D57406105710508F451C0CE
:100A30008053984FAF4FBF4F80934601909347012B
:100A4000A0934801B09349018091450190E001963F
:100A50008370992780934501960102C0220F331FAE
:100A60008A95E2F7F8942093000149E351E0A5E369
:100A7000B1E090E080E0FA011191AF01B901082ED8
:100A800002C0759567950A94E2F77695762F6627EA
:100A900077956795E12FF0E0E15EFE4F7081672B5F
:100AA0006D9301968430910531F7E0914501F0E0B6
:100AB000EE0FFF1FE35CFE4F608171816031F7E252
:100AC0007F0710F06FE077E290E080E00E94FB018A
:100AD0007894F894E0914501F0E0EE0FFF1FE35C9D
:100AE000FE4F60817181603127E2720710F06FE084
:100AF00077E290E080E00E94FB017894A114B104B9
:100B000009F4D2CE0E945801882309F4CDCE0E9468
:100B10000000CACEE7E6F1E01382128288EE93E08D
:100B2000A0E0B0E084839583A683B78385E091E05D
:100B30009183808385EC90E09587848784EC90E0B6
:100B40009787868780EC90E0918B808B81EC90E09A
:100B5000938B828B82EC90E0958B848B86EC90E07B
:100B6000978B868B118E128E138E148E0895A1E2B0
:100B70001A2EAA1BBB1BFD010DC0AA1FBB1FEE1F17
:100B8000FF1FA217B307E407F50720F0A21BB30B62
:100B9000E40BF50B661F771F881F991F1A9469F7DE
:100BA00060957095809590959B01AC01BD01CF013A
:100BB0000895EE0FFF1F0590F491E02D0994F8942D
:020BC000FFCF65
:100BC20001000000008E01EE001B01DB014C012A36
:100BD200013E01060708090A0B0C0D0E0F10123F09
:100BE200065B4F666D7D077F6F777C395E7971207A
:040BF200000D0A00E8
:00000001FF
