:100000000C945C000C9479000C9479000C947900A9
:100010000C9479000C9479000C9479000C9479007C
:100020000C9479000C9479000C9479000C9479006C
:100030000C9479000C9479000C9479000C9479005C
:100040000C94E6000C9479000C9479000C947900DF
:100050000C9479000C9479000C9479000C9479003C
:100060000C9479000C947900000000080002010053
:100070000003040700000000000000000000000072
:10008000250028002B0000000000240027002A0083
:10009000040404040404040402020202020203032E
:1000A0000303030301020408102040800102040836
:1000B000102001020408102011241FBECFEFD8E049
:1000C000DEBFCDBF11E0A0E0B1E0EEEFF5E002C091
:1000D00005900D92AE31B107D9F721E0AEE1B1E064
:1000E00001C01D92A834B207E1F70E9430010C94C0
:1000F000FD020C94000090E0FC01EC55FF4F2491B0
:1001000080579F4FFC018491882399F090E0880FDD
:10011000991FFC01EA57FF4FA591B491FC01E458E7
:10012000FF4F859194918FB7F894EC91E22BEC936B
:100130008FBF089590E0FC01E859FF4F2491FC0126
:10014000EC55FF4F3491FC01E057FF4FE491EE2353
:10015000C9F0222339F0233001F1A8F4213019F13C
:10016000223029F1F0E0EE0FFF1FE458FF4FA59178
:10017000B4918FB7F894EC91611126C030953E236D
:100180003C938FBF08952730A9F02830C9F0243060
:1001900049F7809180008F7D03C0809180008F7728
:1001A00080938000DFCF84B58F7784BDDBCF84B5AB
:1001B0008F7DFBCF8091B0008F778093B000D2CF3E
:1001C0008091B0008F7DF9CF3E2BDACF1F920F9236
:1001D0000FB60F9211242F933F938F939F93AF935A
:1001E000BF938091440190914501A0914601B09147
:1001F00047013091430123E0230F2D3758F5019635
:10020000A11DB11D209343018093440190934501AA
:10021000A0934601B093470180913F019091400126
:10022000A0914101B09142010196A11DB11D8093A1
:100230003F0190934001A0934101B0934201BF91CF
:10024000AF919F918F913F912F910F900FBE0F9083
:100250001F90189526E8230F0296A11DB11DD2CF3D
:10026000789484B5826084BD84B5816084BD85B591
:10027000826085BD85B5816085BD80916E0081609D
:1002800080936E0010928100809181008260809343
:100290008100809181008160809381008091800045
:1002A0008160809380008091B10084608093B10070
:1002B0008091B00081608093B00080917A0084606A
:1002C00080937A0080917A00826080937A00809196
:1002D0007A00816080937A0080917A0080688093B0
:1002E0007A001092C100C9E1D1E0BDE1EB2EB1E08E
:1002F000FB2E1991812F0E947B0060E0812F0E94CC
:100300009A00EC16FD06A9F7A9E1EA2EA1E0FA2E63
:10031000C1E1D1E01991812F0E947B0060E0812F23
:100320000E949A00EC16FD06A9F77AE0872E912C20
:10033000A12CB12CE8EE2E2EE3E03E2E412C512CC8
:10034000F0E06F2EF0E07F2E80913701811116C012
:100350002FB7F8948091440190914501A0914601F6
:10036000B09147012FBF8093330190933401A09344
:100370003501B093360181E08093370180912B01E4
:10038000811116C02FB7F8948091440190914501D6
:10039000A0914601B09147012FBF80932701909310
:1003A0002801A0932901B0932A01E1E0E0932B01F9
:1003B0008FB7F894409144015091450160914601F6
:1003C000709147018FBF8091330190913401A091CA
:1003D0003501B0913601481B590B6A0B7B0B443633
:1003E00051056105710508F47BC08C599F4FAF4FD3
:1003F000BF4F8093330190933401A0933501B093A4
:10040000360160911E0170911F0180912001909131
:1004100021016F5F7F4F8F4F9F4F20E137E240E018
:1004200050E00E94DB026B017C01C0921E01D09261
:100430001F01E0922001F0922101A50194010E9488
:10044000DB0260932501CA01B901A50194010E9454
:10045000DB0260932401C701B60124E630E040E0EE
:1004600050E00E94DB02CA01B901A50194010E947B
:10047000DB0260932301C701B601A20191010E9432
:10048000DB02209322018091000190E0A2E2B1E022
:1004900030E020E0ED91ED012197AC01022E02C089
:1004A000559547950A94E2F75695542F442757954A
:1004B0004795F0E0EF5FFE4F5081450F48832F5F77
:1004C0003F4F2430310531F79C01220F331F53E099
:1004D000959587955A95E1F7282B2F702093000169
:1004E0008FB7F894409144015091450160914601C5
:1004F000709147018FBF8091270190912801A091B1
:100500002901B0912A01481B590B6A0B7B0B44301F
:1005100051056105710508F447C00496A11DB11D80
:100520008093270190932801A0932901B0932A0179
:10053000C0912601D0E0FE01EE5DFE4FE08061E05B
:1005400082E00E949A0061E083E00E949A0061E0EC
:1005500084E00E949A0061E085E00E949A0081E1B7
:10056000C82E81E0D82E10E000E0F12CB701002E5B
:1005700002C0759567950A94E2F76170F601819162
:100580006F010E949A000F5F1F4F0830110571F72D
:10059000FE01E75EFE4F60E080810E949A00219696
:1005A000C370DD27C09326016114710409F4CCCE19
:1005B0000E940000C9CEA1E21A2EAA1BBB1BFD019E
:1005C0000DC0AA1FBB1FEE1FFF1FA217B307E40732
:1005D000F50720F0A21BB30BE40BF50B661F771F8A
:1005E000881F991F1A9469F760957095809590956A
:0E05F0009B01AC01BD01CF010895F894FFCF2F
:1005FE00013F065B4F666D7D077F6F777C395E79B5
:0E060E0071060708090A0B0C0D020304050013
:00000001FF
