:100000000C945C000C9479000C9479000C947900A9
:100010000C9479000C9479000C9479000C9479007C
:100020000C9479000C9479000C9479000C9479006C
:100030000C9479000C9479000C9479000C9479005C
:100040000C94E2000C9479000C9479000C947900E3
:100050000C9479000C9479000C9479000C9479003C
:100060000C9479000C947900000000002400270013
:100070002A0000000000250028002B0004040404CE
:100080000404040402020202020203030303030342
:10009000010204081020408001020408102001021F
:1000A00004081020000000080002010000030407FB
:1000B000000000000000000011241FBECFEFD8E0B8
:1000C000DEBFCDBF11E0A0E0B1E0EAE3F3E002C0A3
:1000D00005900D92A830B107D9F721E0A8E0B1E072
:1000E00001C01D92A131B207E1F70E942C010C94CE
:1000F0009B010C94000090E0FC01EC55FF4F249113
:10010000FC01E057FF4F3491FC01E458FF4FE491AC
:10011000EE23B9F0222339F02330F1F098F42130A6
:1001200009F1223019F1F0E0EE0FFF1FEE58FF4FFA
:10013000A591B4918FB7F894EC9130953E233C9300
:100140008FBF08952730A9F02830C9F0243059F71F
:10015000809180008F7D03C0809180008F77809395
:100160008000E1CF84B58F7784BDDDCF84B58F7DEE
:10017000FBCF8091B0008F778093B000D4CF809177
:10018000B0008F7DF9CF90E0FC01E057FF4F249144
:1001900084589F4FFC018491882399F090E0880F48
:1001A000991FFC01E859FF4FA591B491FC01EE584D
:1001B000FF4F859194918FB7F894EC91E22BEC93DB
:1001C0008FBF08951F920F920FB60F9211242F9395
:1001D0003F938F939F93AF93BF9380910D01909125
:1001E0000E01A0910F01B091100130910C0123E09C
:1001F000230F2D3758F50196A11DB11D20930C0139
:1002000080930D0190930E01A0930F01B093100104
:100210008091080190910901A0910A01B0910B0110
:100220000196A11DB11D8093080190930901A0932F
:100230000A01B0930B01BF91AF919F918F913F91B4
:100240002F910F900FBE0F901F90189526E8230F47
:100250000296A11DB11DD2CF789484B5826084BD71
:1002600084B5816084BD85B5826085BD85B58160BA
:1002700085BD80916E00816080936E001092810038
:1002800080918100826080938100809181008160F3
:1002900080938100809180008160809380008091B4
:1002A000B10084608093B1008091B0008160809340
:1002B000B00080917A00846080937A0080917A0007
:1002C000826080937A0080917A00816080937A00C6
:1002D00080917A00806880937A001092C10082E059
:1002E0000E94C30082E00E947B0083E00E94C30062
:1002F00083E00E947B0084E00E94C30084E00E94AF
:100300007B0085E00E94C30085E00E947B00C0E086
:10031000D1E01991812F0E94C300812F0E947B00A0
:1003200081E0C830D807A9F7C0E0D0E02097F1F30A
:0A0330000E940000FBCFF894FFCFFD
:08033A00060708090A0B0C0D6F
:00000001FF
