:100000000C945C000C9479000C9479000C947900A9
:100010000C9479000C9479000C9479000C942C01C8
:100020000C9479000C9479000C9479000C9479006C
:100030000C9479000C9479000C9479000C9479005C
:100040000C94E2000C9479000C9479000C947900E3
:100050000C9479000C9479000C9479000C9479003C
:100060000C9479000C947900000000002400270013
:100070002A0000000000250028002B0004040404CE
:100080000404040402020202020203030303030342
:10009000010204081020408001020408102001021F
:1000A00004081020000000080002010000030407FB
:1000B000000000000000000011241FBECFEFD8E0B8
:1000C000DEBFCDBF11E0A0E0B1E0E8E3F6E002C0A2
:1000D00005900D92AE31B107D9F721E0AEE1B1E064
:1000E00001C01D92AC33B207E1F70E9496010C9457
:1000F0001A030C94000090E0FC01EC55FF4F249192
:10010000FC01E057FF4F3491FC01E458FF4FE491AC
:10011000EE23B9F0222339F02330F1F098F42130A6
:1001200009F1223019F1F0E0EE0FFF1FEE58FF4FFA
:10013000A591B4918FB7F894EC9130953E233C9300
:100140008FBF08952730A9F02830C9F0243059F71F
:10015000809180008F7D03C0809180008F77809395
:100160008000E1CF84B58F7784BDDDCF84B58F7DEE
:10017000FBCF8091B0008F778093B000D4CF809177
:10018000B0008F7DF9CF90E0FC01E057FF4F249144
:1001900084589F4FFC018491882399F090E0880F48
:1001A000991FFC01E859FF4FA591B491FC01EE584D
:1001B000FF4F859194918FB7F894EC91E22BEC93DB
:1001C0008FBF08951F920F920FB60F9211242F9395
:1001D0003F938F939F93AF93BF93809138019091FA
:1001E0003901A0913A01B0913B013091370123E0F0
:1001F000230F2D3758F50196A11DB11D209337010E
:100200008093380190933901A0933A01B0933B0158
:100210008091330190913401A0913501B091360164
:100220000196A11DB11D8093330190933401A093D9
:100230003501B0933601BF91AF919F918F913F915E
:100240002F910F900FBE0F901F90189526E8230F47
:100250000296A11DB11DD2CF1F920F920FB60F9221
:1002600011242F933F934F935F936F937F938F93BB
:100270009F93AF93EF93FF93A0911E016A2F70E0BD
:10028000FB01E15EFE4F2081439A8BB18C638BB9F9
:10029000822F90E03BB1AC01E6E0440F551FEA9598
:1002A000E1F74074FC01F595E795F695FE2FEE27F2
:1002B000F795E7954E2B3F73432B4BB935B1959589
:1002C00087959595879583703C7F832B85B985B1FC
:1002D00022952F70220F220F837C282B25B9A43062
:1002E00060F42BB16E5F7F4F81E090E001C0880F1A
:1002F0006A95EAF7809582238BB9439880911E0115
:1003000090E001968370992780931E01FF91EF91F1
:10031000AF919F918F917F916F915F914F913F919D
:100320002F910F900FBE0F901F901895789484B561
:10033000826084BD84B5816084BD85B5826085BDE1
:1003400085B5816085BD80916E00816080936E006F
:100350001092810080918100826080938100809161
:100360008100816080938100809180008160809312
:1003700080008091B10084608093B1008091B000D2
:1003800081608093B00080917A00846080937A00CD
:1003900080917A00826080937A0080917A008160F7
:1003A00080937A0080917A00806880937A0010921E
:1003B000C10082E00E94C30082E00E947B0083E0D3
:1003C0000E94C30083E00E947B0084E00E94C3007F
:1003D00084E00E947B0085E00E94C30085E00E94CB
:1003E0007B00C6E0D1E01991812F0E94C300812FCC
:1003F0000E947B0081E0CE30D807A9F73B9A439852
:10040000F89482E08093B0008093700086E080933F
:10041000B1008AEF8093B3007894AAE0CA2ED12C61
:10042000E12CF12CB4E64B2E512C612C712C00E008
:1004300010E080912B01811116C02FB7F8948091A4
:10044000380190913901A0913A01B0913B012FBF41
:100450008093270190932801A0932901B0932A014A
:10046000E1E0E0932B018FB7F8944091380150916F
:10047000390160913A0170913B018FBF8091270152
:1004800090912801A0912901B0912A01481B590B94
:100490006A0B7B0B443651056105710508F4A1C058
:1004A0008C599F4FAF4FBF4F8093270190932801E6
:1004B000A0932901B0932A01609102017091030178
:1004C00080910401909105016F5F7F4F8F4F9F4F87
:1004D00020E137E240E050E00E94F8024B015C016D
:1004E0008092020190920301A0920401B092050152
:1004F000A70196010E94F80260932601CA01B90182
:10050000A70196010E94F80260932501C501B4017C
:10051000A30192010E94F802CA01B901A701960144
:100520000E94F80260932401C501B40128EE33E073
:1005300040E050E00E94F802209323012090000147
:10054000312CC3E2D1E0AFE1B1E09D01AE0190E01A
:1005500080E0FA01B190AF01B101082E02C075959B
:1005600067950A94E2F77695762F662777956795D3
:10057000EB2DF0E0E25FFE4F7081672BF901619394
:100580009F0101968430910521F72091010130E00F
:10059000C901880F991FE3E035952795EA95E1F7A2
:1005A000822B8F70809301018093000130E020E066
:1005B00090E0E991AC01022E02C0559547950A944E
:1005C000E2F75695542F442757954795F0E0E25FA0
:1005D000FE4F5081452B4D932F5F3F4F2430310507
:1005E00041F70115110509F424CF0E94000021CF25
:1005F000A1E21A2EAA1BBB1BFD010DC0AA1FBB1F27
:10060000EE1FFF1FA217B307E407F50720F0A21B98
:10061000B30BE40BF50B661F771F881F991F1A9405
:1006200069F760957095809590959B01AC01BD012F
:08063000CF010895F894FFCFFB
:100638000101AC260000060708090A0B0C0D3F064D
:0E0648005B4F666D7D077F6F777C395E797141
:00000001FF
